:100000000C942A000C9447000C9447000C94470071
:100010000C9447000C9447000C9447000C94470044
:100020000C9447000C9447000C9452110C94251129
:100030000C9447000C9447000C9447000C94470024
:100040000C9474070C9447000C9447000C944700E0
:100050000C94470011241FBECFE5D8E0DEBFCDBF12
:1000600012E0A0E6B0E0EEEFFAE202C005900D92D9
:10007000AE33B107D9F712E0AEE3B2E001C01D9292
:10008000A334B107E1F70E94BA110C947D150C94CA
:100090000000EF92FF920F931F937B018C0120E0F1
:1000A00030E040E05FE40E94F50388238CF0C80153
:1000B000B70120E030E040E05FE40E94C1010E940F
:1000C00055049B01AC01205030404040504806C0D0
:1000D000C801B7010E9455049B01AC01B901CA01D6
:1000E0001F910F91FF90EF900895A0E0B0E0EBE733
:1000F000F0E00C94EF14DC012B01FA019C9192309A
:1001000008F439C1EB018881823008F433C194309E
:1001100069F4843009F02FC111969C91119789815F
:10012000981709F428C1A9E2B1E025C1843009F487
:1001300021C18230A9F4923009F01DC19A01AD01AC
:1001400088E0EA010990AE01E90109929E0181501F
:10015000C1F7E201898111969C918923818308C1AD
:10016000923009F407C112962D903C901397EB0141
:100170008A819B811496AD90BD90CD90DC901797AD
:10018000EC80FD800E811F819101281B390BB90184
:1001900037FF04C066277727621B730B6032710537
:1001A0000CF061C0121613066CF537014801062EDB
:1001B00004C096948794779467940A94D2F721E0C8
:1001C00030E040E050E004C0220F331F441F551FB1
:1001D0006A95D2F721503040404050402E213F21B7
:1001E00040235123211531054105510521F021E01E
:1001F00030E040E050E079018A01E628F72808293C
:1002000019293CC0232BD1F1260E371E350146019A
:10021000062E04C096948794779467940A94D2F734
:1002200021E030E040E050E004C0220F331F441FC3
:10023000551F6A95D2F721503040404050402A2146
:100240003B214C215D21211531054105510521F04E
:1002500021E030E040E050E059016A01A628B728CB
:10026000C828D9280BC0821593052CF01C01AA249C
:10027000BB24650103C0EE24FF24870111969C91E5
:10028000D20111968C91981709F445C0992339F041
:10029000A80197012A193B094C095D0906C0A6016E
:1002A00095012E193F09400B510B57FD08C01182D3
:1002B0003382228224833583468357831DC081E0A5
:1002C00081833382228288279927DC01821B930B4A
:1002D000A40BB50B84839583A683B7830DC0220F2F
:1002E000331F441F551F24833583468357838281E0
:1002F000938101979383828324813581468157813D
:10030000DA01C9010197A109B1098F5F9F4FAF4F72
:10031000BF4328F30BC0918333822282EA0CFB1C7B
:100320000C1D1D1DE482F5820683178383E0808304
:10033000248135814681578157FF1AC0C901AA27F8
:1003400097FDA095BA2F81709070A070B0705695EF
:10035000479537952795822B932BA42BB52B848318
:100360009583A683B7838281938101969383828349
:10037000DF0101C0D201CD01CDB7DEB7E2E10C94BF
:100380000B15A0E2B0E0E7ECF1E00C94FB146983FC
:100390007A838B839C832D833E834F835887E9E048
:1003A000EE2EF12CEC0EFD1ECE010196B7010E943F
:1003B00046068E010F5E1F4FCE010596B8010E94C2
:1003C00046068A8991E089278A8BC701B801AE0168
:1003D000475E5F4F0E9475000E947105A096E6E09F
:1003E0000C941715A0E2B0E0E8EFF1E00C94FB14D8
:1003F00069837A838B839C832D833E834F835887C5
:10040000F9E0EF2EF12CEC0EFD1ECE010196B701A6
:100410000E9446068E010F5E1F4FCE010596B80161
:100420000E944606C701B801AE01475E5F4F0E94B9
:1004300075000E947105A096E6E00C941715A0E2E5
:10044000B0E0E5E2F2E00C94EF1469837A838B83E9
:100450009C832D833E834F835887CE010196BE0136
:10046000675F7F4F0E944606CE010596BE016F5E14
:100470007F4F0E9446069985923088F089898230A4
:10048000C8F0943019F4823051F404C0843029F457
:10049000923081F489E291E0C6C0923049F420E0C4
:1004A0009A858A89981321E02A87CE010996BBC0D4
:1004B000823049F420E09A858A89981321E02A8BBA
:1004C000CE014196B0C02D843E844F8458886D88FB
:1004D0007E888F88988CEE24FF248701AA24BB2471
:1004E000650140E050E060E070E0E0E0F0E0C10174
:1004F00081709070892BE9F0E60CF71C081D191D1E
:100500009A01AB012A0D3B1D4C1D5D1D80E090E062
:10051000A0E0B0E0E614F7040805190520F481E036
:1005200090E0A0E0B0E0BA01A901480F591F6A1F8E
:100530007B1FAA0CBB1CCC1CDD1C97FE08C081E0F5
:1005400090E0A0E0B0E0A82AB92ACA2ADB2A3196B6
:10055000E032F10549F0660C771C881C991C569412
:10056000479437942794C3CFFA85EA892B893C892D
:100570008B859C85280F391F2E5F3F4F17C0CA01FE
:1005800081709070892B61F016950795F794E79428
:1005900080E090E0A0E0B0E8E82AF92A0A2B1B2BC3
:1005A00076956795579547952F5F3F4F77FDE7CF36
:1005B0000CC0440F551F661F771F17FD4160EE0CDE
:1005C000FF1C001F111F21503040403090E05907A0
:1005D00090E0690790E4790760F32B8F3C8FDB0193
:1005E000CA018F779070A070B07080349105A1051A
:1005F000B10561F447FD0AC0E114F10401051105DC
:1006000029F0405C5F4F6F4F7F4F40781A8EFE1786
:1006100011F081E08A8F4D8F5E8F6F8F78A383E01A
:10062000898FCE0149960E947105A096E2E10C9453
:100630000B15A8E1B0E0EFE1F3E00C94F714698347
:100640007A838B839C832D833E834F835887B9E0C5
:10065000EB2EF12CEC0EFD1ECE010196B7010E948F
:1006600046068E010F5E1F4FCE010596B8010E940F
:1006700046062985223008F47EC03989323010F4CC
:10068000B8017CC08A859A8989278A87243011F02D
:10069000223031F4231709F06EC069E271E06EC0B8
:1006A000343039F41D861E861F86188A1C861B86E8
:1006B00004C0323021F484E08987B7015FC02B8504
:1006C0003C858B899C89281B390B3C872B87ED84C3
:1006D000FE840F851889AD88BE88CF88D88CEA142F
:1006E000FB040C051D0540F4EE0CFF1C001F111F40
:1006F000215030403C872B8720E030E040E050E044
:1007000080E090E0A0E0B0E460E070E0EA14FB0478
:100710000C051D0540F0282B392B4A2B5B2BEA18C2
:10072000FB080C091D09B695A79597958795EE0CC2
:10073000FF1C001F111F6F5F7F4F6F31710531F775
:10074000DA01C9018F779070A070B0708034910584
:10075000A105B10561F427FD0AC0E114F10401050A
:10076000110529F0205C3F4F4F4F5F4F20782D87B8
:100770003E874F87588BBE01675F7F4FCB010E943A
:1007800071056896EAE00C941315A8E1B0E0EBEC73
:10079000F3E00C94FB1469837A838B839C832D8311
:1007A0003E834F83588789E0E82EF12CEC0EFD1E26
:1007B000CE010196B7010E9446068E010F5E1F4FC3
:1007C000CE010596B8010E9446068985823040F028
:1007D0008989823028F0C701B8010E94BE0601C095
:1007E0008FEF6896E6E00C941715A8E1B0E0EBEF08
:1007F000F3E00C94FB1469837A838B839C832D83B1
:100800003E834F83588789E0E82EF12CEC0EFD1EC5
:10081000CE010196B7010E9446068E010F5E1F4F62
:10082000CE010596B8010E9446068985823040F0C7
:100830008989823028F0C701B8010E94BE0601C034
:100840008FEF6896E6E00C941715A8E1B0E0EBE2B4
:10085000F4E00C94FB1469837A838B839C832D834F
:100860003E834F83588789E0E82EF12CEC0EFD1E65
:10087000CE010196B7010E9446068E010F5E1F4F02
:10088000CE010596B8010E9446068985823040F067
:100890008989823028F0C701B8010E94BE0601C0D4
:1008A00081E06896E6E00C941715ACE0B0E0EBE56B
:1008B000F4E00C94FF1469837A838B839C83CE01CC
:1008C0000196BE016B5F7F4F0E9446068D8182308C
:1008D00061F1823050F1843021F48E81882351F10E
:1008E0002EC02F81388537FD20C06E812F31310514
:1008F0001CF06623F9F023C08EE190E0821B930B7D
:1009000029853A854B855C8504C056954795379572
:1009100027958A95D2F76623B1F05095409530958A
:1009200021953F4F4F4F5F4F0EC020E030E040E039
:1009300050E009C02FEF3FEF4FEF5FE704C020E02A
:1009400030E040E050E8B901CA012C96E2E00C9496
:100950001B15A8E0B0E0EFEAF4E00C94F7147B017B
:100960008C01611571058105910519F482E0898377
:1009700060C083E089838EE1C82ED12CDC82CB82DB
:10098000ED82FE820F831887C801B7010E942205FD
:10099000FC013197F7FF3BC0222733272E1B3F0B6B
:1009A00057016801022E04C0D694C794B794A79447
:1009B0000A94D2F740E050E060E070E081E090E01F
:1009C000A0E0B0E004C0880F991FAA1FBB1F2A95A2
:1009D000D2F70197A109B1098E219F21A023B1234C
:1009E0000097A105B10521F041E050E060E070E022
:1009F0004A295B296C297D294D835E836F83788723
:100A00008EE190E08E1B9F0B9C838B8312C03097EE
:100A100081F00E2E04C0EE0CFF1C001F111F0A9463
:100A2000D2F7ED82FE820F831887CE1ADF0ADC82AE
:100A3000CB821A82CE0101960E9471052896EAE0C7
:100A40000C941315EF92FF920F931F937B018C016F
:100A500080E0E81680E0F80681E0080780E01807EB
:100A600088F48FEFE816F1040105110531F028F044
:100A700088E090E0A0E0B0E017C080E090E0A0E067
:100A8000B0E012C080E0E81680E0F80680E00807D9
:100A900081E0180728F088E190E0A0E0B0E004C011
:100AA00080E190E0A0E0B0E020E230E040E050E003
:100AB000281B390B4A0B5B0B04C016950795F7945E
:100AC000E7948A95D2F7F701EF5CFE4F8081281BEF
:100AD000310941095109C9011F910F91FF90EF9010
:100AE0000895DF92EF92FF920F931F93FC01E48031
:100AF000F58006811781D1808081823048F480E0C2
:100B000090E0A0E1B0E0E82AF92A0A2B1B2BA5C04F
:100B1000843009F49FC0823021F4EE24FF24870141
:100B200005C0E114F1040105110519F4E0E0F0E05D
:100B300096C0628173819FEF623879070CF05BC0C9
:100B400022E83FEF261B370B2A3131052CF020E03D
:100B500030E040E050E02AC0B801A701022E04C0F6
:100B600076956795579547950A94D2F781E090E07E
:100B7000A0E0B0E004C0880F991FAA1FBB1F2A95F0
:100B8000D2F70197A109B1098E219F21A023B1239A
:100B90000097A105B10521F081E090E0A0E0B0E070
:100BA0009A01AB01282B392B4A2B5B2BDA01C901A7
:100BB0008F779070A070B07080349105A105B10559
:100BC00039F427FF09C0205C3F4F4F4F5F4F04C0EF
:100BD000215C3F4F4F4F5F4FE0E0F0E02030A0E05E
:100BE0003A07A0E04A07A0E45A0710F0E1E0F0E07D
:100BF00079018A0127C06038710564F5FB01E1586D
:100C0000FF4FD801C7018F779070A070B07080340B
:100C10009105A105B10539F4E7FE0DC080E490E02F
:100C2000A0E0B0E004C08FE390E0A0E0B0E0E80E08
:100C3000F91E0A1F1B1F17FF05C016950795F7948D
:100C4000E794319687E016950795F794E7948A958F
:100C5000D1F705C0EE24FF248701EFEFF0E06E2FFF
:100C6000679566276795902F9F77D794DD24D79453
:100C70008E2F8695492F462B582F5D29B701CA0123
:100C80001F910F91FF90EF90DF900895FC01DB0121
:100C9000408151812281622F6F7770E0221F2227CD
:100CA000221F9381892F880F822B282F30E0991FD4
:100CB0009927991F11969C93119721153105A9F534
:100CC000411551056105710511F482E037C082E8D4
:100CD0009FEF13969C938E9312979A01AB0167E056
:100CE000220F331F441F551F6A95D1F783E08C9361
:100CF0000DC0220F331F441F551F12968D919C91DA
:100D00001397019713969C938E931297203080E04F
:100D1000380780E0480780E4580758F314962D936D
:100D20003D934D935C93179708952F3F310579F4C8
:100D3000411551056105710519F484E08C930895FE
:100D400064FF03C081E08C9312C01C9210C02F5727
:100D5000304013963C932E93129783E08C9387E058
:100D6000440F551F661F771F8A95D1F7706414963C
:100D70004D935D936D937C93179708951F93DC01BA
:100D8000FB019C91923008F447C08081823008F4C6
:100D900043C0943051F411961C91843099F58181AF
:100DA000682F70E0611B71093FC0843021F09230E0
:100DB00031F48230B9F18181882389F12DC01196F7
:100DC0001C9111978230F1F081811817D9F4129695
:100DD0002D913C911397828193818217930794F010
:100DE00028173907BCF014968D919D910D90BC91F8
:100DF000A02D2481358146815781281739074A075C
:100E00005B0718F4112341F00AC082179307A40767
:100E1000B50740F4112319F061E070E005C06FEFF1
:100E20007FEF02C060E070E0CB011F910895DF9377
:100E3000CF93CDB7DEB7E7E2F0E080E48083E6E26F
:100E4000F0E087ED8083AFE5B0E0EFE5F0E0808192
:100E500080688C93CF91DF910895DF93CF930F92A9
:100E6000CDB7DEB78983898187708983A7E2B0E037
:100E7000E7E2F0E08081807E8C93A7E2B0E0E7E2D9
:100E8000F0E090818981892B8C93A6E2B0E0E6E2C4
:100E9000F0E0808180648C93E4E2F0E080819181D5
:100EA0000F90CF91DF910895DF93CF93CDB7DEB749
:100EB000A6E2B0E0E6E2F0E0808188608C93CF911A
:100EC000DF910895DF93CF9300D0CDB7DEB79A833B
:100ED000898389819A8190933F0280933E020F908B
:100EE0000F90CF91DF9108951F920F920FB60F923E
:100EF00011242F933F934F935F936F937F938F931F
:100F00009F93AF93BF93EF93FF93DF93CF93CDB7AF
:100F1000DEB780913E0290913F02009729F0E09168
:100F20003E02F0913F020995CF91DF91FF91EF9141
:100F3000BF91AF919F918F917F916F915F914F91F1
:100F40003F912F910F900FBE0F901F901895DF9338
:100F5000CF93CDB7DEB784E161E00E94E907CF917E
:100F6000DF910895DF93CF93CDB7DEB784E161E0E1
:100F70000E942C09CF91DF910895DF93CF93CDB7D5
:100F8000DEB784E160E00E942C09CF91DF910895E3
:100F9000DF93CF93CDB7DEB787E061E00E94E9072A
:100FA000CF91DF910895DF93CF93CDB7DEB787E080
:100FB00061E00E942C09CF91DF910895DF93CF93D8
:100FC000CDB7DEB787E060E00E942C09CF91DF91BA
:100FD0000895DF93CF9300D000D0CDB7DEB78983DB
:100FE0006A838981282F30E03C832B838B819C810D
:100FF0008031910564F42B813C81283031050CF05F
:1010000043C08B819C8199230CF4DEC00DC02B81E1
:101010003C81283131050CF46DC08B819C8180327C
:1010200091050CF0D1C09CC08A818130A1F4A1E36C
:10103000B0E0E1E3F0E08081482F8981282F30E0A3
:1010400081E090E0022E02C0880F991F0A94E2F717
:10105000842B8C93B9C08A81882309F0B5C0A1E3A1
:10106000B0E0E1E3F0E08081482F8981282F30E073
:1010700081E090E0022E02C0880F991F0A94E2F7E7
:10108000809584238C93A0C08A818130B9F4A4E335
:10109000B0E0E4E3F0E08081482F8981882F90E080
:1010A0009C012850304081E090E0022E02C0880F61
:1010B000991F0A94E2F7842B8C9386C08A81882337
:1010C00009F082C0A4E3B0E0E4E3F0E08081482FBF
:1010D0008981882F90E09C012850304081E090E089
:1010E000022E02C0880F991F0A94E2F7809584238C
:1010F0008C936AC08A818130B9F4A7E3B0E0E7E35A
:10110000F0E08081482F8981882F90E09C01205158
:10111000304081E090E0022E02C0880F991F0A94AF
:10112000E2F7842B8C9350C08A81882309F04CC04D
:10113000A7E3B0E0E7E3F0E08081482F8981882FC2
:1011400090E09C012051304081E090E0022E02C0EE
:10115000880F991F0A94E2F7809584238C9334C0FA
:101160008A818130B9F4AAE3B0E0EAE3F0E080815B
:10117000482F8981882F90E09C012851304081E0E0
:1011800090E0022E02C0880F991F0A94E2F7842B88
:101190008C931AC08A818823B9F4AAE3B0E0EAE309
:1011A000F0E08081482F8981882F90E09C012851B0
:1011B000304081E090E0022E02C0880F991F0A940F
:1011C000E2F7809584238C930F900F900F900F90EF
:1011D000CF91DF910895DF93CF9300D000D0CDB7AA
:1011E000DEB789836A838981282F30E03C832B8393
:1011F0008B819C8181309105D1F02B813C81223003
:1012000031052CF48B819C81009761F01EC02B81ED
:101210003C812230310581F08B819C8183309105A6
:1012200081F013C0EBE3F0E08A8180830EC0E8E335
:10123000F0E08A81808309C0E5E3F0E08A81808361
:1012400004C0E2E3F0E08A8180830F900F900F905A
:101250000F90CF91DF910895DF93CF9300D000D00E
:10126000CDB7DEB789836A838981282F30E03C833C
:101270002B838B819C818031910564F42B813C818F
:10128000283031050CF043C08B819C8199230CF4EC
:10129000DEC00DC02B813C81283131050CF46DC0BE
:1012A0008B819C81803291050CF0D1C09CC08A81D9
:1012B0008130A1F4A2E3B0E0E2E3F0E08081482FC6
:1012C0008981282F30E081E090E0022E02C0880F53
:1012D000991F0A94E2F7842B8C93B9C08A818823E2
:1012E00009F0B5C0A2E3B0E0E2E3F0E08081482F6E
:1012F0008981282F30E081E090E0022E02C0880F23
:10130000991F0A94E2F7809584238C93A0C08A8168
:101310008130B9F4A5E3B0E0E5E3F0E08081482F47
:101320008981882F90E09C012850304081E090E036
:10133000022E02C0880F991F0A94E2F7842B8C9327
:1013400086C08A81882309F082C0A5E3B0E0E5E386
:10135000F0E08081482F8981882F90E09C012850FF
:10136000304081E090E0022E02C0880F991F0A945D
:10137000E2F7809584238C936AC08A818130B9F426
:10138000A8E3B0E0E8E3F0E08081482F8981882F6E
:1013900090E09C012051304081E090E0022E02C09C
:1013A000880F991F0A94E2F7842B8C9350C08A818E
:1013B000882309F04CC0A8E3B0E0E8E3F0E08081C6
:1013C000482F8981882F90E09C012051304081E096
:1013D00090E0022E02C0880F991F0A94E2F78095D0
:1013E00084238C9334C08A818130B9F4ABE3B0E0BC
:1013F000EBE3F0E08081482F8981882F90E09C0109
:101400002851304081E090E0022E02C0880F991FE1
:101410000A94E2F7842B8C931AC08A818823B9F44A
:10142000ABE3B0E0EBE3F0E08081482F8981882FC7
:1014300090E09C012851304081E090E0022E02C0F3
:10144000880F991F0A94E2F7809584238C930F905C
:101450000F900F900F90CF91DF910895DF93CF936E
:1014600000D000D0CDB7DEB78A8319828A81282FB9
:1014700030E03C832B838B819C8181309105D1F0BE
:101480002B813C81223031052CF48B819C8100978B
:1014900061F01EC02B813C812230310581F08B81AF
:1014A0009C818330910581F013C0E9E3F0E08081F5
:1014B00089830EC0E6E3F0E08081898309C0E3E31D
:1014C000F0E08081898304C0E0E3F0E080818983DB
:1014D00089810F900F900F900F90CF91DF91089519
:1014E000DF93CF9300D000D0CDB7DEB78A831982C7
:1014F0008A81282F30E03C832B834B815C814031F3
:1015000051055CF48B819C81883091058CF52B8191
:101510003C8133230CF491C00DC04B815C81483178
:1015200051050CF447C08B819C81803291050CF0F1
:1015300084C062C0E0E3F0E08081482F50E08A81FF
:10154000282F30E081E090E002C0880F991F2A9593
:10155000E2F79A01282339238A81882F90E0A90194
:1015600002C0559547958A95E2F7CA01898365C0FF
:10157000E3E3F0E08081482F50E08A81882F90E0FB
:101580009C012850304081E090E002C0880F991FF4
:101590002A95E2F79A01282339238A81882F90E03F
:1015A0000897A90102C0559547958A95E2F7CA01A7
:1015B000898343C0E6E3F0E08081482F50E08A81D0
:1015C000882F90E09C012051304081E090E002C0E3
:1015D000880F991F2A95E2F79A01282339238A81D7
:1015E000882F90E04097A90102C0559547958A95AC
:1015F000E2F7CA01898321C0E9E3F0E08081482F46
:1016000050E08A81882F90E09C012851304081E091
:1016100090E002C0880F991F2A95E2F79A012823CB
:1016200039238A81882F90E04897A90102C05595F7
:1016300047958A95E2F7CA01898389810F900F90B7
:101640000F900F90CF91DF910895DF93CF93CDB797
:10165000DEB789E161E00E94E9078AE161E00E946A
:10166000E9078BE161E00E94E9078CE160E00E94FC
:10167000E9078DE160E00E94E9078EE160E00E94E9
:10168000E9078FE160E00E94E90780E060EF0E94D7
:10169000EB08CF91DF910895DF93CF93CDB7DEB7FD
:1016A0002F970FB6F894DEBF0FBECDBF1A821982F6
:1016B00089E18A83E4C08A81282F30E03F872E8722
:1016C0008E859F858A319105B9F02E853F852B3116
:1016D0003105F9F08E859F858931910531F589E1D4
:1016E00060E00E942C098AE161E00E942C098BE1F4
:1016F00061E00E942C0919C089E161E00E942C0977
:101700008AE160E00E942C098BE161E00E942C09D3
:101710000CC089E161E00E942C098AE161E00E942D
:101720002C098BE160E00E942C098CE18983A0C028
:1017300089810E94700A882309F097C08981282F27
:1017400030E03D872C878C859D858D319105A9F1F1
:101750002C853D852E31310534F48C859D858C3169
:10176000910571F082C02C853D852E31310509F43B
:1017700042C08C859D858F31910509F459C075C093
:101780008A81282F30E03B872A878A859B858A318A
:10179000910571F02A853B852B31310559F08A85F9
:1017A0009B858931910509F060C093E299876DC0EE
:1017B00019866BC02AE2298768C08A81282F30E009
:1017C00038872F838F8198858A31910571F02F8119
:1017D00038852B31310561F08F81988589319105EC
:1017E00009F043C099E0998750C028E029874DC08F
:1017F00037E039874AC08A81282F30E03E832D8325
:101800008D819E818A31910569F02D813E812B3138
:10181000310559F08D819E818931910531F596E030
:10182000998733C025E0298730C034E039872DC03F
:101830008A81282F30E03C832B838B819C818A31E5
:10184000910569F02B813C812B31310559F08B8159
:101850009C818931910549F493E0998716C022E073
:10186000298713C031E0398710C089818F5F898350
:101870008981803208F45CCF8A818F5F8A838A8174
:101880008C3108F418CF8FEF898789852F960FB692
:10189000F894DEBF0FBECDBFCF91DF910895DF93E7
:1018A000CF9300D0CDB7DEB79A8389830E944C0BCB
:1018B0008823F4F00E944C0B833229F480E690E0F8
:1018C0009A83898315C00E944C0B8A3229F482E6E0
:1018D00090E09A8389830CC00E944C0B992787FD66
:1018E000909529813A81B9014AE050E00E9438156B
:1018F0000F900F90CF91DF910895DF93CF93CDB7E5
:10190000DEB76D970FB6F894DEBF0FBECDBF8D8FDB
:101910008D8D882F90E08071907095958795959525
:1019200087959595879595958795982F8EE0692F42
:101930000E942C098D8D882F90E080729070959573
:10194000879595958795959587959595879595957F
:101950008795982F8DE0692F0E942C098D8D882FF7
:1019600090E080749070082E892F000C881F990BCE
:10197000000C881F991F982F8CE0692F0E942C095A
:101980008D8D982F991F9927991F8BE0692F0E94A1
:101990002C0988E061E00E942C0980E090E0A0E83A
:1019A000BFE3898F9A8FAB8FBC8F698D7A8D8B8DBA
:1019B0009C8D20E030E04AE755E40E941F02DC01E4
:1019C000CB018D8B9E8BAF8BB88F6D897E898F8974
:1019D000988D20E030E040E85FE30E9425048823F2
:1019E0002CF481E090E09C8B8B8B3FC06D897E89CD
:1019F0008F89988D20E03FEF4FE757E40E94C503A1
:101A000018164CF5698D7A8D8B8D9C8D20E030E019
:101A100040E251E40E941F02DC01CB01BC01CD0178
:101A20000E944900DC01CB019C8B8B8B0FC080E9AD
:101A300091E09A8B898B89899A890197F1F79A8B22
:101A4000898B8B899C8901979C8B8B8B8B899C893B
:101A5000009769F714C06D897E898F89988D0E94DF
:101A60004900DC01CB019C8B8B8B8B899C89988BEB
:101A70008F878F8598890197F1F7988B8F8788E0FA
:101A800060E00E942C098D8D982F91708EE0692F57
:101A90000E942C098D8D882F90E082709070959512
:101AA0008795982F8DE0692F0E942C098D8D882FA6
:101AB00090E0847090709595879595958795982F6F
:101AC0008CE0692F0E942C098D8D882F90E0887002
:101AD0009070959587959595879595958795982F6D
:101AE0008BE0692F0E942C0988E061E00E942C099C
:101AF00080E090E0A0E8BFE38B879C87AD87BE873E
:101B00006B857C858D859E8520E030E04AE755E435
:101B10000E941F02DC01CB018F839887A987BA87B7
:101B20006F81788589859A8520E030E040E85FE321
:101B30000E94250488232CF481E090E09E838D830D
:101B40003FC06F81788589859A8520E03FEF4FE718
:101B500057E40E94C50318164CF56B857C858D856E
:101B60009E8520E030E040E251E40E941F02DC014B
:101B7000CB01BC01CD010E944900DC01CB019E8359
:101B80008D830FC080E991E09C838B838B819C8146
:101B90000197F1F79C838B838D819E8101979E83B2
:101BA0008D838D819E81009769F714C06F81788540
:101BB00089859A850E944900DC01CB019E838D8333
:101BC0008D819E819A83898389819A810197F1F71A
:101BD0009A83898388E060E00E942C096D960FB695
:101BE000F894DEBF0FBECDBFCF91DF910895DF9394
:101BF000CF930F92CDB7DEB789838AE060E00E9471
:101C00002C0989E060E00E942C0989810E947D0CEA
:101C10000F90CF91DF910895DF93CF930F92CDB7BF
:101C2000DEB789838AE061E00E942C0989E060E0E8
:101C30000E942C0989810E947D0C0F90CF91DF9129
:101C40000895DF93CF93CDB7DEB72E970FB6F894F4
:101C5000DEBF0FBECDBF88E061E00E94E9078AE0E9
:101C600061E00E94E90789E061E00E94E9078EE0F7
:101C700061E00E94E9078DE061E00E94E9078CE0E5
:101C800061E00E94E9078BE061E00E94E90783E2DE
:101C90000E94F70D82E20E94F70D88E20E94F70D84
:101CA0008EE00E94F70D81E00E94F70D80E090E049
:101CB000A0E4B0E48B879C87AD87BE876B857C856D
:101CC0008D859E8520E030E04AE755E40E941F02A2
:101CD000DC01CB018F839887A987BA876F817885CC
:101CE00089859A8520E030E040E85FE30E94250482
:101CF00088232CF481E090E09E838D833FC06F8128
:101D0000788589859A8520E03FEF4FE757E40E9468
:101D1000C50318164CF56B857C858D859E8520E066
:101D200030E040E251E40E941F02DC01CB01BC0123
:101D3000CD010E944900DC01CB019E838D830FC041
:101D400080E991E09C838B838B819C810197F1F7E3
:101D50009C838B838D819E8101979E838D838D8152
:101D60009E81009769F714C06F81788589859A856F
:101D70000E944900DC01CB019E838D838D819E8171
:101D80009A83898389819A810197F1F79A8389835C
:101D90002E960FB6F894DEBF0FBECDBFCF91DF9168
:101DA0000895DF93CF93CDB7DEB781E00E94F70DA2
:101DB000CF91DF910895DF93CF9300D0CDB7DEB7F9
:101DC00089836A838A81882F90E00024969587957D
:101DD0000794969587950794982F802D982F898141
:101DE000890F80580E94F70D0F900F90CF91DF91CF
:101DF0000895DF93CF9300D00F92CDB7DEB79B83CA
:101E00008A8319820FC08981282F30E08A819B81C3
:101E1000FC01E20FF31F908189818F5F8983892FF5
:101E20000E940C0E8981282F30E08A819B81FC0161
:101E3000E20FF31F8081882331F70F900F900F90EE
:101E4000CF91DF910895DF93CF9300D000D0CDB72D
:101E5000DEB79A8389836B834C838B816C810E946C
:101E6000DB0E89819A810E94F90E0F900F900F90DE
:101E70000F90CF91DF910895DF93CF93CDB7DEB769
:101E800084E061E00E94E90785E061E00E94E907E3
:101E900086E061E00E94E907CF91DF910895DF932A
:101EA000CF9300D00F92CDB7DEB789838981282FD9
:101EB00030E03B832A838A819B818130910571F0D8
:101EC0002A813B812230310571F08A819B81009704
:101ED00071F484E061E00E942C0909C085E061E0B2
:101EE0000E942C0904C086E061E00E942C090F903A
:101EF0000F900F90CF91DF910895DF93CF9300D093
:101F00000F92CDB7DEB789838981282F30E03B83DC
:101F10002A838A819B818130910571F02A813B81DE
:101F20002230310571F08A819B81009771F484E041
:101F300060E00E942C0909C085E060E00E942C0945
:101F400004C086E060E00E942C090F900F900F9073
:101F5000CF91DF910895DF93CF9300D000D0CDB71C
:101F6000DEB78A8319828A81282F30E03C832B8355
:101F70008B819C8181309105B1F02B813C81223095
:101F80003105F1F08B819C81009731F584E00E944E
:101F9000700A8983998181E08927898384E0698136
:101FA0000E942C0919C085E00E94700A89839981DA
:101FB00081E08927898385E069810E942C090CC012
:101FC00086E00E94700A8983998181E0892789834C
:101FD00086E069810E942C090F900F900F900F905E
:101FE000CF91DF910895DF93CF93CDB7DEB70E94F5
:101FF0008A10CF91DF910895DF93CF93CDB7DEB7ED
:102000008FE00E940511CF91DF910895DF93CF9368
:10201000CDB7DEB788EC0E940511CF91DF9108950E
:10202000DF93CF93CDB7DEB788E160E00E94E90788
:102030000E9417070E948A10CF91DF910895DF93C5
:10204000CF93CDB7DEB780E00E942D07CC01A0E092
:10205000B0E0BC01CD010E94A904DC01CB01BC01B0
:10206000CD0126EF38E24CE950E40E941F02DC016A
:10207000CB01BC01CD0120E030E040E251E40E9400
:102080001903DC01CB01BC01CD010E944900DC0138
:10209000CB01CF91DF910895DF93CF9300D0CDB7DF
:1020A000DEB79A8389830E941F10882F90E02981D0
:1020B0003A81B9014AE050E00E9438150F900F9024
:1020C000CF91DF910895DF93CF93CDB7DEB70E9414
:1020D000D41080E790E10E941311CF91DF91089511
:1020E000DF93CF93CDB7DEB70E941F10893220F067
:1020F00081E08093400202C010924002CF91DF91B4
:102100000895DF93CF93CDB7DEB780914002CF9192
:10211000DF910895DF93CF93CDB7DEB7A8E5B0E0A8
:10212000E8E5F0E0808183608C93A9E5B0E0E9E523
:10213000F0E080818C7F8C93E2E5F0E01082A3E5F3
:10214000B0E0E3E5F0E08081887F8C93A3E5B0E028
:10215000E3E5F0E0808183608C93A3E5B0E0E3E504
:10216000F0E08081877B8C93A3E5B0E0E3E5F0E0CD
:10217000808188648C93ECE5F0E08AEF8083A3E5AE
:10218000B0E0E3E5F0E080818F7C8C93A3E5B0E0E4
:10219000E3E5F0E0808180638C9383E161E00E945D
:1021A000E907CF91DF910895DF93CF93CDB7DEB7E5
:1021B000A9E5B0E0E9E5F0E080818C7F8C93A9E5AA
:1021C000B0E0E9E5F0E0808182608C93CF91DF910F
:1021D0000895DF93CF93CDB7DEB7A9E5B0E0E9E589
:1021E000F0E080818C7F8C93CF91DF910895DF9315
:1021F000CF930F92CDB7DEB78983E2E5F0E0898116
:1022000080830F90CF91DF910895DF93CF930F924A
:10221000CDB7DEB78983ECE5F0E0898180830F904C
:10222000CF91DF910895DF93CF9300D0CDB7DEB784
:102230009A83898389819A81909342028093410293
:102240000F900F90CF91DF9108951F920F920FB6CC
:102250000F9211242F933F934F935F936F937F932C
:102260008F939F93AF93BF93EF93FF93DF93CF939E
:10227000CDB7DEB7E0914102F09142020995CF91CE
:10228000DF91FF91EF91BF91AF919F918F917F91DE
:102290006F915F914F913F912F910F900FBE0F90D3
:1022A0001F9018951F920F920FB60F9211242F9323
:1022B0003F934F935F936F937F938F939F93AF93CE
:1022C000BF93EF93FF93DF93CF93CDB7DEB7E0914A
:1022D0004102F09142020995CF91DF91FF91EF9178
:1022E000BF91AF919F918F917F916F915F914F912E
:1022F0003F912F910F900FBE0F901F901895DF9375
:10230000CF93CDB7DEB7E9E2F0E087E68083E0E483
:10231000F0E01082EAE2F0E088E98083CF91DF917B
:102320000895DF93CF9300D00F92CDB7DEB78983A6
:10233000EBE2F0E08081ECE2F0E089818083EBE287
:10234000F0E080810F900F900F90CF91DF91089572
:10235000DF93CF9300D0CDB7DEB7EBE2F0E0808122
:10236000ECE2F0E08081898389810F900F90CF911A
:10237000DF910895DF93CF93CDB7DEB70E94561259
:102380000E94F6130E94631084E690E060E040E053
:102390000E94230F0E940E1488EE93E00E946114A5
:1023A0000E940E140E947313882309F46CC00E94CB
:1023B000D10E83E790E060E040E00E94230F0E948E
:1023C0000E1488EE93E00E9461140E94D10E80E802
:1023D00090E060E040E00E94230F0E94D2130E9430
:1023E0000E1488EB9BE00E9461140E94D10E8DE8D0
:1023F00090E060E040E00E94230F0E94DB130E9407
:102400000E1484EF91E00E9461140E94D10E8AE9BB
:1024100090E060E040E00E94230F80E00E944F0FB8
:102420000E940E1488EE93E00E94611481E00E94E5
:102430004F0F0E940E1488EE93E00E94611482E018
:102440000E944F0F0E940E1488EE93E00E946114C8
:102450000E94D10E8AEA90E060E040E00E94230FE3
:102460000E94E4130E940E1488EE93E00E9461140F
:1024700086EB90E060E040E00E94230F0E94ED13A5
:102480000E940E14FDCF0E94D10E82EC90E060E01D
:1024900040E00E94230F81ED90E060E041E00E9467
:1024A000230F88EE93E00E9461147ACFDF93CF93DD
:1024B000CDB7DEB70E943C0F0E94210E0E947F1113
:1024C0000E94F30F0E94A7070E94250B0E94C807D5
:1024D0000E941010CF91DF910895DF93CF9300D029
:1024E000CDB7DEB70E94A811282F30E03A832983A8
:1024F00089819A818730910509F466C029813A81E2
:10250000283031051CF589819A818330910509F4C1
:102510004BC029813A81243031055CF489819A814C
:1025200081309105C9F129813A8122303105C1F10B
:1025300064C089819A818530910509F43DC0298163
:102540003A81263031050CF03BC032C089819A8136
:102550008B30910509F444C029813A812C30310532
:102560005CF489819A8189309105A1F129813A81B0
:102570002A30310594F52BC089819A818D309105DF
:10258000A9F129813A812D3031056CF189819A8137
:102590008E30910581F131C080E00E944F0F2DC037
:1025A00080E00E947D0F29C081E00E944F0F25C06E
:1025B00081E00E947D0F21C082E00E944F0F1DC06C
:1025C00082E00E947D0F19C00E94B20716C00E94CF
:1025D000BD0713C00E94FC0F10C00E9406100DC062
:1025E0000E94D3070AC00E94DE0707C08CED90E06E
:1025F0000E94F90E02C00E94D10E0F900F90CF9151
:10260000DF9108950F931F93DF93CF9300D000D0F5
:10261000CDB7DEB79B838A836C8319820E94D10E6B
:1026200089EE90E060E040E00E94230F19824DC0E7
:102630000E944C0B88230CF448C00E944C0B833240
:10264000A9F48981282F30E08A819B818C01020FB7
:10265000131FC8010E942F15800F911F24EF30E037
:10266000B90142E050E00E94261522C00E944C0BA6
:102670008A32A9F48981282F30E08A819B818C01DC
:10268000020F131FC8010E942F15800F911F26EF04
:1026900030E0B90142E050E00E94261509C089816E
:1026A000282F30E08A819B81820F931F0E944F0C5C
:1026B0008A819B8160E041E00E94230F84E690E0E4
:1026C0000E94611489818F5F898399818C81981719
:1026D00008F4AECF0F900F900F900F90CF91DF9135
:1026E0001F910F910895DF93CF93CDB7DEB72A974F
:1026F0000FB6F894DEBF0FBECDBF8091F800909169
:10270000F900A091FA00B091FB008A839B83AC830F
:10271000BD839E012E5F3F4F8BE699E0B9014AE0F1
:1027200050E00E9438150E94D10E19828091F80065
:102730009091F900A091FA00B091FB008E839F83E5
:10274000A887B987CE01069664E00E940213198219
:102750001AC08981282F30E0CE010296FC01E20FD9
:10276000F31F40818981282F30E0CE010696FC01BD
:10277000E20FF31F8081481721F489818F5F8983DD
:1027800002C01A8605C08981843018F381E08A87E7
:102790008A852A960FB6F894DEBF0FBECDBFCF91C3
:1027A000DF910895DF93CF93CDB7DEB70E94FC0F82
:1027B000CF91DF910895DF93CF93CDB7DEB70E941D
:1027C0000610CF91DF910895DF93CF93CDB7DEB799
:1027D0000E94D307CF91DF910895DF93CF93CDB7B8
:1027E000DEB70E94DE07CF91DF910895DF93CF938C
:1027F000CDB7DEB780E00E947D0F81E00E947D0FA3
:1028000082E00E947D0F0E9406100E94DE070E9457
:10281000BD070E94D10ECF91DF910895DF93CF9332
:10282000CDB7DEB784E690E00E9461140E9481106B
:10283000882309F443C00E94B2070E94D10E8CEF96
:1028400090E060E040E00E94230F0E94E41388EED5
:1028500093E00E9461140E94D10E8DE091E060E04F
:1028600040E00E94230F0EC081E392E00E944C10D2
:1028700081E392E060E041E00E94230F84E690E073
:102880000E9461140E948110882371F70E94D10E6A
:102890008AE191E060E040E00E94230F86EB90E047
:1028A00060E041E00E94230F0E94ED130E94BD07EB
:1028B00088EE93E00E9461140E94D10ECF91DF91C7
:1028C0000895DF93CF93CDB7DEB760970FB6F89436
:1028D000DEBF0FBECDBF988B8F878F859889CC01C7
:1028E000A0E0B0E0BC01CD010E94A904DC01CB0155
:1028F0008B879C87AD87BE876B857C858D859E8504
:1029000020E030E04AE755E40E941F02DC01CB01E1
:102910008F839887A987BA876F81788589859A85FB
:1029200020E030E040E85FE30E94250488232CF497
:1029300081E090E09E838D833FC06F81788589859B
:102940009A8520E03FEF4FE757E40E94C503181631
:102950004CF56B857C858D859E8520E030E040E2DE
:1029600051E40E941F02DC01CB01BC01CD010E9499
:102970004900DC01CB019E838D830FC080E991E08B
:102980009C838B838B819C810197F1F79C838B8344
:102990008D819E8101979E838D838D819E8100977D
:1029A00069F714C06F81788589859A850E944900EE
:1029B000DC01CB019E838D838D819E819A838983E7
:1029C00089819A810197F1F79A83898360960FB67E
:1029D000F894DEBF0FBECDBFCF91DF9108952F9247
:1029E0003F924F925F926F927F928F929F92AF929F
:1029F000BF92CF92DF92EF92FF920F931F93CF93EC
:102A0000DF93CDB7DEB7CA1BDB0B0FB6F894DEBF82
:102A10000FBECDBF09942A88398848885F846E84A8
:102A20007D848C849B84AA84B984C884DF80EE80F2
:102A3000FD800C811B81AA81B981CE0FD11D0FB6FB
:102A4000F894DEBF0FBECDBFED010895FB01DC01A0
:102A500002C001900D9241505040D8F70895FC01FA
:102A600001900020E9F7809590958E0F9F1F0895A3
:102A7000FB019F01E8944230C4F04532B4F44A307F
:102A800029F497FB1EF4909581959F4F642F77272B
:102A90000E946915805D8A330CF0895D8193CB01BA
:102AA0000097A1F716F45DE251931082C9010C94CE
:102AB0005915DC01FC01672F71917723E1F73297FB
:102AC00004C07C916D9370836291AE17BF07C8F309
:102AD0000895AA1BBB1B51E107C0AA1FBB1FA61765
:102AE000B70710F0A61BB70B881F991F5A95A9F7B7
:0E2AF00080959095BC01CD010895F894FFCF1C
:102AFE002A002300454E5445522050415353574F00
:102B0E0052440057454C434F4D4520484F4D4500CC
:102B1E004F70656E696E6720444F4F5200436C6F65
:102B2E0073696E6720444F4F5200496C6C756D6926
:102B3E006E617465204C454473004F70656E696E0E
:102B4E00672046414E00436C6F73696E67204641A5
:102B5E004E0057524F4E472050415353574F5244F9
:102B6E000054525920414741494E21005465737417
:102B7E00696E6720455350490050415353574F5289
:102B8E0044203A002A002300000000004F70656EBA
:102B9E00696E672046414E20484F54210054454DE2
:102BAE00502052454144203D2000436C6F73696EA6
:102BBE00672042555A5A455200000000000000009E
:102BCE0000000102020303030304040404040404CA
:102BDE000405050505050505050505050505050598
:102BEE000506060606060606060606060606060678
:102BFE000606060606060606060606060606060667
:102C0E000607070707070707070707070707070747
:102C1E000707070707070707070707070707070736
:102C2E000707070707070707070707070707070726
:102C3E000707070707070707070707070707070716
:102C4E0007080808080808080808080808080808F7
:102C5E0008080808080808080808080808080808E6
:102C6E0008080808080808080808080808080808D6
:102C7E0008080808080808080808080808080808C6
:102C8E0008080808080808080808080808080808B6
:102C9E0008080808080808080808080808080808A6
:102CAE000808080808080808080808080808080896
:102CBE000808080808080808080808080808080886
:0E2CCE00080000000000802500000003000048
:00000001FF
